## Transfer or send token

### Step 1. Create the rawtransaction `tokentransfer tokenid destpubkey amount`
Example Command:
```shell
$ ./komodo-cli -ac_name=ATEST tokentransfer e4895451cae47f8f10303c3594888b739f044f7c778623318d877e8df365cc66 02ebc786cb83de8dc3922ab83c21f3f8a2f3216940c3bf9da43ce39e2a3a882c92 500000
```
Output:
```JSON
{
  "result": "success",
  "hex": "01000000023b61e44ce3cedf536b52d8da11faacd041494a078e971551ed4e2bd496bc8da1000000006a4730440220111c67172740c0c2556979fdf84639ba299ff22586ebd220f25aa301f029003f02203da97a2575c0ed1b309774309f5dc952ee305a46cd83e95eae99e3564a1772f6012103fe754763c176e1339a3f62ee6b9484720e17ee4646b65a119e9f6370c7004abcffffffff66cc65f38d7e878d312386777c4f049f738b8894353c30108f7fe4ca515489e4000000007b4c79a276a072a26ba067a565802103fe754763c176e1339a3f62ee6b9484720e17ee4646b65a119e9f6370c7004abc8140c875a14edcbece61a6c18721398c927dc1e4509863e075b3922a8e3a2da6848e037142436e9102b529ee93a9ec618a4c67b63c52790d71812bb94179056913bba100af038001e3a10001ffffffff0420a1070000000000302ea22c8020541be9f843b476373fc18d8c8fab59c98c2c009f49c07fa66b7b431e4142feae8103120c008203000401cce028933b00000000302ea22c8020bc485b86ffd067abe520c078b74961f6b25e4efca6388c6bfd599ca3f53d8dae8103120c008203000401cc28b9486cb2430000232103fe754763c176e1339a3f62ee6b9484720e17ee4646b65a119e9f6370c7004abcac0000000000000000246a22e374e4895451cae47f8f10303c3594888b739f044f7c778623318d877e8df365cc6600000000"
}
```

### Step 2. Send/broadcast raw transaction hex
Example Command:
```shell
$ ./komodo-cli -ac_name=ATEST sendrawtransaction 01000000023b61e44ce3cedf536b52d8da11faacd041494a078e971551ed4e2bd496bc8da1000000006a4730440220111c67172740c0c2556979fdf84639ba299ff22586ebd220f25aa301f029003f02203da97a2575c0ed1b309774309f5dc952ee305a46cd83e95eae99e3564a1772f6012103fe754763c176e1339a3f62ee6b9484720e17ee4646b65a119e9f6370c7004abcffffffff66cc65f38d7e878d312386777c4f049f738b8894353c30108f7fe4ca515489e4000000007b4c79a276a072a26ba067a565802103fe754763c176e1339a3f62ee6b9484720e17ee4646b65a119e9f6370c7004abc8140c875a14edcbece61a6c18721398c927dc1e4509863e075b3922a8e3a2da6848e037142436e9102b529ee93a9ec618a4c67b63c52790d71812bb94179056913bba100af038001e3a10001ffffffff0420a1070000000000302ea22c8020541be9f843b476373fc18d8c8fab59c98c2c009f49c07fa66b7b431e4142feae8103120c008203000401cce028933b00000000302ea22c8020bc485b86ffd067abe520c078b74961f6b25e4efca6388c6bfd599ca3f53d8dae8103120c008203000401cc28b9486cb2430000232103fe754763c176e1339a3f62ee6b9484720e17ee4646b65a119e9f6370c7004abcac0000000000000000246a22e374e4895451cae47f8f10303c3594888b739f044f7c778623318d877e8df365cc6600000000
```
Output:
```JSON
ProcessAssets
AssetValidate (t)
vin1 1000000000, vout0 500000, vout1 999500000, transfer validated 10.00000000 -> 10.00000000
AssetValidate.(t) passed
88ac2d4d27654e9d8ac195d5ab482ee9895303902eaacfbb687b1e736bb06fb4
```

### Step 3. Decode the raw transaction and check against the following if the data is sane

```JSON
 vin.0: normal input
 vin.1 .. vin.n-1: valid CC outputs
 vout.0 to n-2: assetoshis output to CC
 vout.n-2: normal output for change (if any)
 vout.n-1: opreturn [EVAL_ASSETS] ['t'] [assetid]
```

Example Command:
```shell
./komodo-cli -ac_name=ATEST decoderawtransaction 01000000023b61e44ce3cedf536b52d8da11faacd041494a078e971551ed4e2bd496bc8da1000000006a4730440220111c67172740c0c2556979fdf84639ba299ff22586ebd220f25aa301f029003f02203da97a2575c0ed1b309774309f5dc952ee305a46cd83e95eae99e3564a1772f6012103fe754763c176e1339a3f62ee6b9484720e17ee4646b65a119e9f6370c7004abcffffffff66cc65f38d7e878d312386777c4f049f738b8894353c30108f7fe4ca515489e4000000007b4c79a276a072a26ba067a565802103fe754763c176e1339a3f62ee6b9484720e17ee4646b65a119e9f6370c7004abc8140c875a14edcbece61a6c18721398c927dc1e4509863e075b3922a8e3a2da6848e037142436e9102b529ee93a9ec618a4c67b63c52790d71812bb94179056913bba100af038001e3a10001ffffffff0420a1070000000000302ea22c8020541be9f843b476373fc18d8c8fab59c98c2c009f49c07fa66b7b431e4142feae8103120c008203000401cce028933b00000000302ea22c8020bc485b86ffd067abe520c078b74961f6b25e4efca6388c6bfd599ca3f53d8dae8103120c008203000401cc28b9486cb2430000232103fe754763c176e1339a3f62ee6b9484720e17ee4646b65a119e9f6370c7004abcac0000000000000000246a22e374e4895451cae47f8f10303c3594888b739f044f7c778623318d877e8df365cc6600000000
```
Output:
```JSON
{
  "txid": "88ac2d4d27654e9d8ac195d5ab482ee9895303902eaacfbb687b1e736bb06fb4",
  "size": 524,
  "version": 1,
  "locktime": 0,
  "vin": [
    {
      "txid": "a18dbc96d42b4eed5115978e074a4941d0acfa11dad8526b53dfcee34ce4613b",
      "vout": 0,
      "scriptSig": {
        "asm": "30440220111c67172740c0c2556979fdf84639ba299ff22586ebd220f25aa301f029003f02203da97a2575c0ed1b309774309f5dc952ee305a46cd83e95eae99e3564a1772f601 03fe754763c176e1339a3f62ee6b9484720e17ee4646b65a119e9f6370c7004abc",
        "hex": "4730440220111c67172740c0c2556979fdf84639ba299ff22586ebd220f25aa301f029003f02203da97a2575c0ed1b309774309f5dc952ee305a46cd83e95eae99e3564a1772f6012103fe754763c176e1339a3f62ee6b9484720e17ee4646b65a119e9f6370c7004abc"
      },
      "sequence": 4294967295
    },
    {
      "txid": "e4895451cae47f8f10303c3594888b739f044f7c778623318d877e8df365cc66",
      "vout": 0,
      "scriptSig": {
        "asm": "a276a072a26ba067a565802103fe754763c176e1339a3f62ee6b9484720e17ee4646b65a119e9f6370c7004abc8140c875a14edcbece61a6c18721398c927dc1e4509863e075b3922a8e3a2da6848e037142436e9102b529ee93a9ec618a4c67b63c52790d71812bb94179056913bba100af038001e3a10001",
        "hex": "4c79a276a072a26ba067a565802103fe754763c176e1339a3f62ee6b9484720e17ee4646b65a119e9f6370c7004abc8140c875a14edcbece61a6c18721398c927dc1e4509863e075b3922a8e3a2da6848e037142436e9102b529ee93a9ec618a4c67b63c52790d71812bb94179056913bba100af038001e3a10001"
      },
      "sequence": 4294967295
    }
  ],
  "vout": [
    {
      "value": 0.00500000,
      "valueSat": 500000,
      "n": 0,
      "scriptPubKey": {
        "asm": "a22c8020541be9f843b476373fc18d8c8fab59c98c2c009f49c07fa66b7b431e4142feae8103120c008203000401 OP_CHECKCRYPTOCONDITION",
        "hex": "2ea22c8020541be9f843b476373fc18d8c8fab59c98c2c009f49c07fa66b7b431e4142feae8103120c008203000401cc",
        "reqSigs": 1,
        "type": "cryptocondition",
        "addresses": [
          "RLB1YWh4N115NFh8tbArCBGaTQ3F43Yg1F"
        ]
      }
    },
    {
      "value": 9.99500000,
      "valueSat": 999500000,
      "n": 1,
      "scriptPubKey": {
        "asm": "a22c8020bc485b86ffd067abe520c078b74961f6b25e4efca6388c6bfd599ca3f53d8dae8103120c008203000401 OP_CHECKCRYPTOCONDITION",
        "hex": "2ea22c8020bc485b86ffd067abe520c078b74961f6b25e4efca6388c6bfd599ca3f53d8dae8103120c008203000401cc",
        "reqSigs": 1,
        "type": "cryptocondition",
        "addresses": [
          "RRPpWbVdxcxmhx4xnWnVZFDfGc9p1177ti"
        ]
      }
    },
    {
      "value": 744335.99945000,
      "valueSat": 74433599945000,
      "n": 2,
      "scriptPubKey": {
        "asm": "03fe754763c176e1339a3f62ee6b9484720e17ee4646b65a119e9f6370c7004abc OP_CHECKSIG",
        "hex": "2103fe754763c176e1339a3f62ee6b9484720e17ee4646b65a119e9f6370c7004abcac",
        "reqSigs": 1,
        "type": "pubkey",
        "addresses": [
          "RANyPgfZZLhSjQB9jrzztSw66zMMYDZuxQ"
        ]
      }
    },
    {
      "value": 0.00000000,
      "valueSat": 0,
      "n": 3,
      "scriptPubKey": {
        "asm": "OP_RETURN e374e4895451cae47f8f10303c3594888b739f044f7c778623318d877e8df365cc66",
        "hex": "6a22e374e4895451cae47f8f10303c3594888b739f044f7c778623318d877e8df365cc66",
        "type": "nulldata"
      }
    }
  ]
}
```
