## Use faucet to get coins

Usage: `faucetget`

Faucet returns 0.1 coins and requires about 30 seconds of CPU time.

### Step 1: Use `faucetget` and get the raw HEX value
Example Command:
```shell
./komodo-cli -ac_name=ATEST faucetget
```
Output:
```JSON
{
  "result": "success",
  "hex": "01000000010941cea65a560aeae02f0d49770965490bd99eeac4185f25075685da58e99d40000000007b4c79a276a072a26ba067a565802103682b255c40d0cde8faee381a1a50bbb89980ff24539cb8518e294d3a63cefe128140150ad95012ad8fae990096787d75d563977cef914e812e9dc8b6236243ac5f0050b3af4f2675ad433dcff4be16d113fb9a46357ee60682ed5d76c60f9ccffe8ea100af038001e4a10001ffffffff02b077a43018090000302ea22c8020e029c511da55523565835887e412e5a0c9b920801b007000df45e545f25028248103120c008203000401cc00e1f50500000000232103fe754763c176e1339a3f62ee6b9484720e17ee4646b65a119e9f6370c7004abcac00000000"
}
```

### Step 2: Broadcast/send the raw transaction
Example Command:
```shell
./komodo-cli -ac_name=ATEST sendrawtransaction 01000000010941cea65a560aeae02f0d49770965490bd99eeac4185f25075685da58e99d40000000007b4c79a276a072a26ba067a565802103682b255c40d0cde8faee381a1a50bbb89980ff24539cb8518e294d3a63cefe128140150ad95012ad8fae990096787d75d563977cef914e812e9dc8b6236243ac5f0050b3af4f2675ad433dcff4be16d113fb9a46357ee60682ed5d76c60f9ccffe8ea100af038001e4a10001ffffffff02b077a43018090000302ea22c8020e029c511da55523565835887e412e5a0c9b920801b007000df45e545f25028248103120c008203000401cc00e1f50500000000232103fe754763c176e1339a3f62ee6b9484720e17ee4646b65a119e9f6370c7004abcac00000000
```
Output:
```JSON
faucetget validated
64760e66c49df97eea14896ecdd505d2d78ea214eb583c8a6a0ac863b2b989b3
```

### Step 3: Decode the raw transaction (optional to check if the value are sane)
Example Command:
```shell
./komodo-cli -ac_name=ATEST decoderawtransaction 01000000010941cea65a560aeae02f0d49770965490bd99eeac4185f25075685da58e99d40000000007b4c79a276a072a26ba067a565802103682b255c40d0cde8faee381a1a50bbb89980ff24539cb8518e294d3a63cefe128140150ad95012ad8fae990096787d75d563977cef914e812e9dc8b6236243ac5f0050b3af4f2675ad433dcff4be16d113fb9a46357ee60682ed5d76c60f9ccffe8ea100af038001e4a10001ffffffff02b077a43018090000302ea22c8020e029c511da55523565835887e412e5a0c9b920801b007000df45e545f25028248103120c008203000401cc00e1f50500000000232103fe754763c176e1339a3f62ee6b9484720e17ee4646b65a119e9f6370c7004abcac00000000
```
Output:
```JSON
{
  "txid": "64760e66c49df97eea14896ecdd505d2d78ea214eb583c8a6a0ac863b2b989b3",
  "size": 275,
  "version": 1,
  "locktime": 0,
  "vin": [
    {
      "txid": "409de958da855607255f18c4ea9ed90b49650977490d2fe0ea0a565aa6ce4109",
      "vout": 0,
      "scriptSig": {
        "asm": "a276a072a26ba067a565802103682b255c40d0cde8faee381a1a50bbb89980ff24539cb8518e294d3a63cefe128140150ad95012ad8fae990096787d75d563977cef914e812e9dc8b6236243ac5f0050b3af4f2675ad433dcff4be16d113fb9a46357ee60682ed5d76c60f9ccffe8ea100af038001e4a10001",
        "hex": "4c79a276a072a26ba067a565802103682b255c40d0cde8faee381a1a50bbb89980ff24539cb8518e294d3a63cefe128140150ad95012ad8fae990096787d75d563977cef914e812e9dc8b6236243ac5f0050b3af4f2675ad433dcff4be16d113fb9a46357ee60682ed5d76c60f9ccffe8ea100af038001e4a10001"
      },
      "sequence": 4294967295
    }
  ],
  "vout": [
    {
      "value": 99994.99950000,
      "valueSat": 9999499950000,
      "n": 0,
      "scriptPubKey": {
        "asm": "a22c8020e029c511da55523565835887e412e5a0c9b920801b007000df45e545f25028248103120c008203000401 OP_CHECKCRYPTOCONDITION",
        "hex": "2ea22c8020e029c511da55523565835887e412e5a0c9b920801b007000df45e545f25028248103120c008203000401cc",
        "reqSigs": 1,
        "type": "cryptocondition",
        "addresses": [
          "R9zHrofhRbub7ER77B7NrVch3A63R39GuC"
        ]
      }
    },
    {
      "value": 1.00000000,
      "valueSat": 100000000,
      "n": 1,
      "scriptPubKey": {
        "asm": "03fe754763c176e1339a3f62ee6b9484720e17ee4646b65a119e9f6370c7004abc OP_CHECKSIG",
        "hex": "2103fe754763c176e1339a3f62ee6b9484720e17ee4646b65a119e9f6370c7004abcac",
        "reqSigs": 1,
        "type": "pubkey",
        "addresses": [
          "RANyPgfZZLhSjQB9jrzztSw66zMMYDZuxQ"
        ]
      }
    }
  ]
}
```
