## Create New Token

### Step 1. Create using `tokencreate name supply description`  
Example Command:
```shell
./komodo-cli -ac_name=ATEST tokencreate TAK 10 "Testing phase."
```
Output:  
```JSON
{
  "result": "success",
  "hex": "01000000022c223cfc9c3349aed24ca89e44af6fcdb030150443bd6ac55e2080ce4b097c3002000000484730440220316605c400c47e2d5aa6104ac5c5229e71683b8db9482efa1655d257690d338802202344f254b208a6d724f52f4503531cf005a8ca68119bde4b6cb281ab9fccaf1101ffffffff80e66c0c47311449c5effc2782134006f05fd31e79659bc4b0608d7e247e280c0000000049483045022100ec494d3fa5c76fe0382e83980affdfd091509fb4e18b20fff8c095374e6b6bee022015ddaf95dc8b03e8cbba00ff7a377b80a7bd2200a68669718c329c617549757701ffffffff0400a0724e18090000302ea22c8020bc485b86ffd067abe520c078b74961f6b25e4efca6388c6bfd599ca3f53d8dae8103120c008203000401cc1027000000000000232102adf84e0e075cf90868bd4e3d34a03420e034719649c41f371fc70d8e33aa2702acc01f66fa15090000232103fe754763c176e1339a3f62ee6b9484720e17ee4646b65a119e9f6370c7004abcac0000000000000000396a37e3632103fe754763c176e1339a3f62ee6b9484720e17ee4646b65a119e9f6370c7004abc0354414b0e54657374696e672070686173652e00000000"
}
```

### Step 2. Send/broadcast raw transaction hex  
Example Command:  
```shell
./komodo-cli -ac_name=ATEST sendrawtransaction 01000000012c223cfc9c3349aed24ca89e44af6fcdb030150443bd6ac55e2080ce4b097c300200000049483045022100dc83b88f5ed1f01aab7dee8bd8f2b3c0bf83537c9b3cbb0c6ea78ebafdf4c6f60220518440e7f43d24c5733531a8d5a825dbb90e716f7ba20c0d469e7004c1fcc5aa01ffffffff0400ca9a3b00000000302ea22c8020bc485b86ffd067abe520c078b74961f6b25e4efca6388c6bfd599ca3f53d8dae8103120c008203000401cc1027000000000000232102adf84e0e075cf90868bd4e3d34a03420e034719649c41f371fc70d8e33aa2702acc055cbbe15090000232103fe754763c176e1339a3f62ee6b9484720e17ee4646b65a119e9f6370c7004abcac0000000000000000396a37e3632103fe754763c176e1339a3f62ee6b9484720e17ee4646b65a119e9f6370c7004abc0354414b0e54657374696e672070686173652e00000000
```
Output (This is your token ID):  
```JSON
e4895451cae47f8f10303c3594888b739f044f7c778623318d877e8df365cc66
```

### Step 3. `decoderawtransaction` to verify the output is sane

Example Command:  
```shell
./komodo-cli -ac_name=ATEST decoderawtransaction 01000000012c223cfc9c3349aed24ca89e44af6fcdb030150443bd6ac55e2080ce4b097c300200000049483045022100dc83b88f5ed1f01aab7dee8bd8f2b3c0bf83537c9b3cbb0c6ea78ebafdf4c6f60220518440e7f43d24c5733531a8d5a825dbb90e716f7ba20c0d469e7004c1fcc5aa01ffffffff0400ca9a3b00000000302ea22c8020bc485b86ffd067abe520c078b74961f6b25e4efca6388c6bfd599ca3f53d8dae8103120c008203000401cc1027000000000000232102adf84e0e075cf90868bd4e3d34a03420e034719649c41f371fc70d8e33aa2702acc055cbbe15090000232103fe754763c176e1339a3f62ee6b9484720e17ee4646b65a119e9f6370c7004abcac0000000000000000396a37e3632103fe754763c176e1339a3f62ee6b9484720e17ee4646b65a119e9f6370c7004abc0354414b0e54657374696e672070686173652e00000000
```
Output:  
```JSON
{
  "txid": "e4895451cae47f8f10303c3594888b739f044f7c778623318d877e8df365cc66",
  "size": 335,
  "version": 1,
  "locktime": 0,
  "vin": [
    {
      "txid": "307c094bce80205ec56abd43041530b0cd6faf449ea84cd2ae49339cfc3c222c",
      "vout": 2,
      "scriptSig": {
        "asm": "3045022100dc83b88f5ed1f01aab7dee8bd8f2b3c0bf83537c9b3cbb0c6ea78ebafdf4c6f60220518440e7f43d24c5733531a8d5a825dbb90e716f7ba20c0d469e7004c1fcc5aa01",
        "hex": "483045022100dc83b88f5ed1f01aab7dee8bd8f2b3c0bf83537c9b3cbb0c6ea78ebafdf4c6f60220518440e7f43d24c5733531a8d5a825dbb90e716f7ba20c0d469e7004c1fcc5aa01"
      },
      "sequence": 4294967295
    }
  ],
  "vout": [
    {
      "value": 10.00000000,
      "valueSat": 1000000000,
      "n": 0,
      "scriptPubKey": {
        "asm": "a22c8020bc485b86ffd067abe520c078b74961f6b25e4efca6388c6bfd599ca3f53d8dae8103120c008203000401 OP_CHECKCRYPTOCONDITION",
        "hex": "2ea22c8020bc485b86ffd067abe520c078b74961f6b25e4efca6388c6bfd599ca3f53d8dae8103120c008203000401cc",
        "reqSigs": 1,
        "type": "cryptocondition",
        "addresses": [
          "RRPpWbVdxcxmhx4xnWnVZFDfGc9p1177ti"
        ]
      }
    },
    {
      "value": 0.00010000,
      "valueSat": 10000,
      "n": 1,
      "scriptPubKey": {
        "asm": "02adf84e0e075cf90868bd4e3d34a03420e034719649c41f371fc70d8e33aa2702 OP_CHECKSIG",
        "hex": "2102adf84e0e075cf90868bd4e3d34a03420e034719649c41f371fc70d8e33aa2702ac",
        "reqSigs": 1,
        "type": "pubkey",
        "addresses": [
          "RFYE2yL3KknWdHK6uNhvWacYsCUtwzjY3u"
        ]
      }
    },
    {
      "value": 99889.99960000,
      "valueSat": 9988999960000,
      "n": 2,
      "scriptPubKey": {
        "asm": "03fe754763c176e1339a3f62ee6b9484720e17ee4646b65a119e9f6370c7004abc OP_CHECKSIG",
        "hex": "2103fe754763c176e1339a3f62ee6b9484720e17ee4646b65a119e9f6370c7004abcac",
        "reqSigs": 1,
        "type": "pubkey",
        "addresses": [
          "RANyPgfZZLhSjQB9jrzztSw66zMMYDZuxQ"
        ]
      }
    },
    {
      "value": 0.00000000,
      "valueSat": 0,
      "n": 3,
      "scriptPubKey": {
        "asm": "OP_RETURN e3632103fe754763c176e1339a3f62ee6b9484720e17ee4646b65a119e9f6370c7004abc0354414b0e54657374696e672070686173652e",
        "hex": "6a37e3632103fe754763c176e1339a3f62ee6b9484720e17ee4646b65a119e9f6370c7004abc0354414b0e54657374696e672070686173652e",
        "type": "nulldata"
      }
    }
  ]
}

```
