## Bet on the Dice Contract

Usage: `dicebet name fundingtxid amount odds`

## Terminology
```
name = Name of the Dice contract you want to place your bet  
fundingtxid = The ID of the Dice contract  
amount = Amount you want to place bet  
odds = Specify your odds
```
### Step 1: Set your parameters to create a raw transaction and get the hex value
Example Command:
```shell
./komodo-cli -ac_name=ATEST dicebet KMDDice ebfcff20fa5ab7bebf14b778e74bd6b34b02f100ff75e4cb611190f160ae4cf7 7 7
```
Output:
```JSON
{
  "result": "success",
  "hex": "010000000378c9b0720ac4ffda232bd8ebc1ebf10d78efe23daf59ad887439baf72a3ffd03000000007b4c79a276a072a26ba067a5658021039d966927cfdadab3ee6c56da63c21f17ea753dde4b3dfd41487103e24b27e94e8140fe35ae062eb8239b1eec5407c71e27531f281dc369b55c3d3c235a87f6c10b3d4e7a029a6420e4fa076bd1d3da013287a17973fb6684bc487335ce176e7488d3a100af038001e6a10001ffffffff0b2261be0d143f42b833bcdf6e95582d4071f7d7d1d03eb1de0893eb7dc563ef0200000049483045022100f934f292e5ef9b3c605b83381abec1d99c7119d35a3833e40e65d788191ea51402207e925062602bb603f7109e3f36009563952741e666210195686de27b61515cc801ffffffff0b2261be0d143f42b833bcdf6e95582d4071f7d7d1d03eb1de0893eb7dc563ef0300000048473044022020aa8c2d6dc9727ce32f34ae704eb374b7cf87f43250a2d10072fad266f6602e02201fce01ae5c550438f2a512ab13f4c40d411d7726f32046e989b9747af33fd4e101ffffffff0500ca9a3b00000000302ea22c80200095ece5eee67e1f313e7ba2d156c7617106cd52b75c93ed3fb110ff3fba6e998103120c008203000401cc0027b92900000000302ea22c80200095ece5eee67e1f313e7ba2d156c7617106cd52b75c93ed3fb110ff3fba6e998103120c008203000401cc1727000000000000232103fe754763c176e1339a3f62ee6b9484720e17ee4646b65a119e9f6370c7004abcacc91265bf17090000232103fe754763c176e1339a3f62ee6b9484720e17ee4646b65a119e9f6370c7004abcac00000000000000006d6a4c6ae6424b4d444469636500f74cae60f1901161cbe475ff00f1024bb3d64be778b714bfbeb75afa20fffceb6b2540dd22241ca6e72fe32c1cd1d2a9528140cad290f1599041e06589040067000000000000000000000000000000000000000000000000000000000000000000000000"
}
```
### Step 2: Send/broadcast the raw transaction hex
Example Command:
```shell
./komodo-cli -ac_name=ATEST sendrawtransaction 010000000378c9b0720ac4ffda232bd8ebc1ebf10d78efe23daf59ad887439baf72a3ffd03000000007b4c79a276a072a26ba067a5658021039d966927cfdadab3ee6c56da63c21f17ea753dde4b3dfd41487103e24b27e94e8140fe35ae062eb8239b1eec5407c71e27531f281dc369b55c3d3c235a87f6c10b3d4e7a029a6420e4fa076bd1d3da013287a17973fb6684bc487335ce176e7488d3a100af038001e6a10001ffffffff0b2261be0d143f42b833bcdf6e95582d4071f7d7d1d03eb1de0893eb7dc563ef0200000049483045022100f934f292e5ef9b3c605b83381abec1d99c7119d35a3833e40e65d788191ea51402207e925062602bb603f7109e3f36009563952741e666210195686de27b61515cc801ffffffff0b2261be0d143f42b833bcdf6e95582d4071f7d7d1d03eb1de0893eb7dc563ef0300000048473044022020aa8c2d6dc9727ce32f34ae704eb374b7cf87f43250a2d10072fad266f6602e02201fce01ae5c550438f2a512ab13f4c40d411d7726f32046e989b9747af33fd4e101ffffffff0500ca9a3b00000000302ea22c80200095ece5eee67e1f313e7ba2d156c7617106cd52b75c93ed3fb110ff3fba6e998103120c008203000401cc0027b92900000000302ea22c80200095ece5eee67e1f313e7ba2d156c7617106cd52b75c93ed3fb110ff3fba6e998103120c008203000401cc1727000000000000232103fe754763c176e1339a3f62ee6b9484720e17ee4646b65a119e9f6370c7004abcacc91265bf17090000232103fe754763c176e1339a3f62ee6b9484720e17ee4646b65a119e9f6370c7004abcac00000000000000006d6a4c6ae6424b4d444469636500f74cae60f1901161cbe475ff00f1024bb3d64be778b714bfbeb75afa20fffceb6b2540dd22241ca6e72fe32c1cd1d2a9528140cad290f1599041e06589040067000000000000000000000000000000000000000000000000000000000000000000000000
```
Output:
```JSON
694c309c86a928fde1919a86381f61670479c3ede85ea0574d08636cc406e798
```
### Step 3: Decode raw transaction (optional to check if the values are sane)
Example Command:
```shell
./komodo-cli -ac_name=ATEST decoderawtransaction 010000000378c9b0720ac4ffda232bd8ebc1ebf10d78efe23daf59ad887439baf72a3ffd03000000007b4c79a276a072a26ba067a5658021039d966927cfdadab3ee6c56da63c21f17ea753dde4b3dfd41487103e24b27e94e8140fe35ae062eb8239b1eec5407c71e27531f281dc369b55c3d3c235a87f6c10b3d4e7a029a6420e4fa076bd1d3da013287a17973fb6684bc487335ce176e7488d3a100af038001e6a10001ffffffff0b2261be0d143f42b833bcdf6e95582d4071f7d7d1d03eb1de0893eb7dc563ef0200000049483045022100f934f292e5ef9b3c605b83381abec1d99c7119d35a3833e40e65d788191ea51402207e925062602bb603f7109e3f36009563952741e666210195686de27b61515cc801ffffffff0b2261be0d143f42b833bcdf6e95582d4071f7d7d1d03eb1de0893eb7dc563ef0300000048473044022020aa8c2d6dc9727ce32f34ae704eb374b7cf87f43250a2d10072fad266f6602e02201fce01ae5c550438f2a512ab13f4c40d411d7726f32046e989b9747af33fd4e101ffffffff0500ca9a3b00000000302ea22c80200095ece5eee67e1f313e7ba2d156c7617106cd52b75c93ed3fb110ff3fba6e998103120c008203000401cc0027b92900000000302ea22c80200095ece5eee67e1f313e7ba2d156c7617106cd52b75c93ed3fb110ff3fba6e998103120c008203000401cc1727000000000000232103fe754763c176e1339a3f62ee6b9484720e17ee4646b65a119e9f6370c7004abcacc91265bf17090000232103fe754763c176e1339a3f62ee6b9484720e17ee4646b65a119e9f6370c7004abcac00000000000000006d6a4c6ae6424b4d444469636500f74cae60f1901161cbe475ff00f1024bb3d64be778b714bfbeb75afa20fffceb6b2540dd22241ca6e72fe32c1cd1d2a9528140cad290f1599041e06589040067000000000000000000000000000000000000000000000000000000000000000000000000
```
Output:
```JSON
{
  "txid": "694c309c86a928fde1919a86381f61670479c3ede85ea0574d08636cc406e798",
  "size": 721,
  "version": 1,
  "locktime": 0,
  "vin": [
    {
      "txid": "03fd3f2af7ba397488ad59af3de2ef780df1ebc1ebd82b23daffc40a72b0c978",
      "vout": 0,
      "scriptSig": {
        "asm": "a276a072a26ba067a5658021039d966927cfdadab3ee6c56da63c21f17ea753dde4b3dfd41487103e24b27e94e8140fe35ae062eb8239b1eec5407c71e27531f281dc369b55c3d3c235a87f6c10b3d4e7a029a6420e4fa076bd1d3da013287a17973fb6684bc487335ce176e7488d3a100af038001e6a10001",
        "hex": "4c79a276a072a26ba067a5658021039d966927cfdadab3ee6c56da63c21f17ea753dde4b3dfd41487103e24b27e94e8140fe35ae062eb8239b1eec5407c71e27531f281dc369b55c3d3c235a87f6c10b3d4e7a029a6420e4fa076bd1d3da013287a17973fb6684bc487335ce176e7488d3a100af038001e6a10001"
      },
      "sequence": 4294967295
    },
    {
      "txid": "ef63c57deb9308deb13ed0d1d7f771402d58956edfbc33b8423f140dbe61220b",
      "vout": 2,
      "scriptSig": {
        "asm": "3045022100f934f292e5ef9b3c605b83381abec1d99c7119d35a3833e40e65d788191ea51402207e925062602bb603f7109e3f36009563952741e666210195686de27b61515cc801",
        "hex": "483045022100f934f292e5ef9b3c605b83381abec1d99c7119d35a3833e40e65d788191ea51402207e925062602bb603f7109e3f36009563952741e666210195686de27b61515cc801"
      },
      "sequence": 4294967295
    },
    {
      "txid": "ef63c57deb9308deb13ed0d1d7f771402d58956edfbc33b8423f140dbe61220b",
      "vout": 3,
      "scriptSig": {
        "asm": "3044022020aa8c2d6dc9727ce32f34ae704eb374b7cf87f43250a2d10072fad266f6602e02201fce01ae5c550438f2a512ab13f4c40d411d7726f32046e989b9747af33fd4e101",
        "hex": "473044022020aa8c2d6dc9727ce32f34ae704eb374b7cf87f43250a2d10072fad266f6602e02201fce01ae5c550438f2a512ab13f4c40d411d7726f32046e989b9747af33fd4e101"
      },
      "sequence": 4294967295
    }
  ],
  "vout": [
    {
      "value": 10.00000000,
      "valueSat": 1000000000,
      "n": 0,
      "scriptPubKey": {
        "asm": "a22c80200095ece5eee67e1f313e7ba2d156c7617106cd52b75c93ed3fb110ff3fba6e998103120c008203000401 OP_CHECKCRYPTOCONDITION",
        "hex": "2ea22c80200095ece5eee67e1f313e7ba2d156c7617106cd52b75c93ed3fb110ff3fba6e998103120c008203000401cc",
        "reqSigs": 1,
        "type": "cryptocondition",
        "addresses": [
          "REabWB7KjFN5C3LFMZ5odExHPenYzHLtVw"
        ]
      }
    },
    {
      "value": 7.00000000,
      "valueSat": 700000000,
      "n": 1,
      "scriptPubKey": {
        "asm": "a22c80200095ece5eee67e1f313e7ba2d156c7617106cd52b75c93ed3fb110ff3fba6e998103120c008203000401 OP_CHECKCRYPTOCONDITION",
        "hex": "2ea22c80200095ece5eee67e1f313e7ba2d156c7617106cd52b75c93ed3fb110ff3fba6e998103120c008203000401cc",
        "reqSigs": 1,
        "type": "cryptocondition",
        "addresses": [
          "REabWB7KjFN5C3LFMZ5odExHPenYzHLtVw"
        ]
      }
    },
    {
      "value": 0.00010007,
      "valueSat": 10007,
      "n": 2,
      "scriptPubKey": {
        "asm": "03fe754763c176e1339a3f62ee6b9484720e17ee4646b65a119e9f6370c7004abc OP_CHECKSIG",
        "hex": "2103fe754763c176e1339a3f62ee6b9484720e17ee4646b65a119e9f6370c7004abcac",
        "reqSigs": 1,
        "type": "pubkey",
        "addresses": [
          "RANyPgfZZLhSjQB9jrzztSw66zMMYDZuxQ"
        ]
      }
    },
    {
      "value": 99975.99969993,
      "valueSat": 9997599969993,
      "n": 3,
      "scriptPubKey": {
        "asm": "03fe754763c176e1339a3f62ee6b9484720e17ee4646b65a119e9f6370c7004abc OP_CHECKSIG",
        "hex": "2103fe754763c176e1339a3f62ee6b9484720e17ee4646b65a119e9f6370c7004abcac",
        "reqSigs": 1,
        "type": "pubkey",
        "addresses": [
          "RANyPgfZZLhSjQB9jrzztSw66zMMYDZuxQ"
        ]
      }
    },
    {
      "value": 0.00000000,
      "valueSat": 0,
      "n": 4,
      "scriptPubKey": {
        "asm": "OP_RETURN e6424b4d444469636500f74cae60f1901161cbe475ff00f1024bb3d64be778b714bfbeb75afa20fffceb6b2540dd22241ca6e72fe32c1cd1d2a9528140cad290f1599041e065890400670000000000000000000000000000000000000000000000000000000000000000",
        "hex": "6a4c6ae6424b4d444469636500f74cae60f1901161cbe475ff00f1024bb3d64be778b714bfbeb75afa20fffceb6b2540dd22241ca6e72fe32c1cd1d2a9528140cad290f1599041e065890400670000000000000000000000000000000000000000000000000000000000000000",
        "type": "nulldata"
      }
    }
  ]
}
```
