## Dice Fund
Usage: `dicefund name funds minbet maxbet maxodds timeoutblocks`

### Terminology 
```
name = Name of your Dice contract
funds = The amount of funds you want to start with
minbet = Minimum amount allowed for bet
maxbet = Maximum amount allowed for bet
maxodds = is the largest odds you can be with
timeoutblocks = is how many blocks before it times out and pays out to the winner
```
The dice creator node should be online to determine winning bid or losing bid. If the dice creator node is offline, after the timeout block the system will automatically declare the bets winner and payout winning funds. Set the `timeoutblocks` longer.  Long timeout block will ensure house to not loose any funds if there is any downtime of the node and comes back online within the time. You can set it low if you can ensure higher uptime of your dice creator node.

### Step 1: Create your customized Dice contract and get the hex value
Example Command:
```shell
./komodo-cli -ac_name=ATEST dicefund KMDDice 777777 0.777 7.77 777 7
```
Output:
```JSON
{
  "result": "success",
  "hex": "010000000a5890b79f42a2039d6b661cec3f0a748f8122b51427d2747d7cddb45e7c774988010000004847304402206544c1d0bb42da89d93e58526a28b3c80ef45dca516ecd11ee3fe7fc35a5261c02207f0b134ff5cdb840692a65eccd86fb2fc2a63afc6f1309a2ed9d054d1a076b1201ffffffff5b90bd88124ebd1a0988c612902234782b737b860189fb5871088d2d3aae2481020000004948304502210091972c641291022da6d49ab8d3790ccdbb0f563b385b89ac723fa688a6c84ee202207198c3d48ce1d9591fce6fb41192145c38f8312c7a78251f4231986070a3283a01ffffffff5bfb06fac51707a69414a1f908ac3f9eb3fca50f303c4ae960f94491e8dc7f5c0100000049483045022100ea0b49d902f844ef280b8621cdc5a5365a779a04a159ba30e00bd0b3eaf284da02205aece19ee807ce11b0ed7b74175df29dd2be4560361174664571a6a596a894fd01ffffffff5ca636731b8c28889248a0b434e3124f19518b2c4b4bbefd80af303329ae9471020000004847304402203eb318ae650753ab7cc2e9ea9b2cc2477add2fbd9e49e0ac1d7560f7e08ecbb002202d77d75ed2c1d3b53feda45c699374f74d1bf1065b46e3a24514dd072f2a9dcb01ffffffff5d5132ee6f33ba09b4bcfb84beddfcbdf58888ea7f221cc8078a96865e1e0ea10000000049483045022100e3cc5062becc979fc347a9ccde6af8ebba39c0d88105c9a35c89876207fafb0202204f631d063911e4526958f6629a847cca832d845a86adcae248625fd45b03e7d001ffffffff5e626ec0b20cd783ee0bf52aa33189796ddd4649d31b64fdee10b6daecbd079200000000494830450221009f3c17ccc73f28d9ba1d80c149890f56c6aafa576e152eb776082d12d54548eb022053f3b87eee04d9f5ef9f961d79433ec76b0f0e4a2288104212db01f6d2d7d1f801ffffffff5eb56cd4df0702b06debcf36de8309432b8140daa0a2544159ff68bbb96ed2050000000048473044022029bbf3fa5dea810d70ea9ef9b81b5ee72c3b3ec7d59faae4ca9658ed723ef683022060226d854ff44aebeba36bfda9e664185be0999ce7ee8b7b053f67642bd8c64101ffffffff603757f4b8370432cf30b12abdbb93b888e7707cd4321851f926779ee126e24402000000484730440220717994adac8b009a0f110438cef1e226d6674494e774813fad044b340c38052002202852c11fcc5bb1f3aa39e3dbbf00aa0d2b808c1c0769fbd692201cf10e96644b01ffffffff62347ddc97606a28457514a53b16d7fd9534c3c12d3f890cf72536f130737bae020000004847304402202dcf8a066fc56dae83f2259f902707aff7484251666c5b01a2e71e909fe859630220306a4149afce43dc343e103cdf4926ae9bf9f9a7a6eed9bf235efe04e619daea01ffffffff63686994d134931e0b43809f6d9ab73f7053d9aaa143987c56083345eddb5ec60100000048473044022066b3aadd3f2545c953f7389a062831736eda6c01f9df20e56b107d87fa6bfe8d02204357d85e1ab484c779fac5eab5d01fd39f5caf1ecde499873de34ac5e204b7ab01ffffffff0400112e08bd460000302ea22c80200095ece5eee67e1f313e7ba2d156c7617106cd52b75c93ed3fb110ff3fba6e998103120c008203000401cc10270000000000002321039d966927cfdadab3ee6c56da63c21f17ea753dde4b3dfd41487103e24b27e94eac100b47751c020000232103fe754763c176e1339a3f62ee6b9484720e17ee4646b65a119e9f6370c7004abcac00000000000000002c6a2ae6464b4d444469636500a09ba104000000004014502e000000000903000000000000070000000000000000000000"
}
```
### Step 2: Send raw transaction / Broadcast the hex value
Example Command:
```shell
./komodo-cli -ac_name=ATEST sendrawtransaction 010000000a5890b79f42a2039d6b661cec3f0a748f8122b51427d2747d7cddb45e7c774988010000004847304402206544c1d0bb42da89d93e58526a28b3c80ef45dca516ecd11ee3fe7fc35a5261c02207f0b134ff5cdb840692a65eccd86fb2fc2a63afc6f1309a2ed9d054d1a076b1201ffffffff5b90bd88124ebd1a0988c612902234782b737b860189fb5871088d2d3aae2481020000004948304502210091972c641291022da6d49ab8d3790ccdbb0f563b385b89ac723fa688a6c84ee202207198c3d48ce1d9591fce6fb41192145c38f8312c7a78251f4231986070a3283a01ffffffff5bfb06fac51707a69414a1f908ac3f9eb3fca50f303c4ae960f94491e8dc7f5c0100000049483045022100ea0b49d902f844ef280b8621cdc5a5365a779a04a159ba30e00bd0b3eaf284da02205aece19ee807ce11b0ed7b74175df29dd2be4560361174664571a6a596a894fd01ffffffff5ca636731b8c28889248a0b434e3124f19518b2c4b4bbefd80af303329ae9471020000004847304402203eb318ae650753ab7cc2e9ea9b2cc2477add2fbd9e49e0ac1d7560f7e08ecbb002202d77d75ed2c1d3b53feda45c699374f74d1bf1065b46e3a24514dd072f2a9dcb01ffffffff5d5132ee6f33ba09b4bcfb84beddfcbdf58888ea7f221cc8078a96865e1e0ea10000000049483045022100e3cc5062becc979fc347a9ccde6af8ebba39c0d88105c9a35c89876207fafb0202204f631d063911e4526958f6629a847cca832d845a86adcae248625fd45b03e7d001ffffffff5e626ec0b20cd783ee0bf52aa33189796ddd4649d31b64fdee10b6daecbd079200000000494830450221009f3c17ccc73f28d9ba1d80c149890f56c6aafa576e152eb776082d12d54548eb022053f3b87eee04d9f5ef9f961d79433ec76b0f0e4a2288104212db01f6d2d7d1f801ffffffff5eb56cd4df0702b06debcf36de8309432b8140daa0a2544159ff68bbb96ed2050000000048473044022029bbf3fa5dea810d70ea9ef9b81b5ee72c3b3ec7d59faae4ca9658ed723ef683022060226d854ff44aebeba36bfda9e664185be0999ce7ee8b7b053f67642bd8c64101ffffffff603757f4b8370432cf30b12abdbb93b888e7707cd4321851f926779ee126e24402000000484730440220717994adac8b009a0f110438cef1e226d6674494e774813fad044b340c38052002202852c11fcc5bb1f3aa39e3dbbf00aa0d2b808c1c0769fbd692201cf10e96644b01ffffffff62347ddc97606a28457514a53b16d7fd9534c3c12d3f890cf72536f130737bae020000004847304402202dcf8a066fc56dae83f2259f902707aff7484251666c5b01a2e71e909fe859630220306a4149afce43dc343e103cdf4926ae9bf9f9a7a6eed9bf235efe04e619daea01ffffffff63686994d134931e0b43809f6d9ab73f7053d9aaa143987c56083345eddb5ec60100000048473044022066b3aadd3f2545c953f7389a062831736eda6c01f9df20e56b107d87fa6bfe8d02204357d85e1ab484c779fac5eab5d01fd39f5caf1ecde499873de34ac5e204b7ab01ffffffff0400112e08bd460000302ea22c80200095ece5eee67e1f313e7ba2d156c7617106cd52b75c93ed3fb110ff3fba6e998103120c008203000401cc10270000000000002321039d966927cfdadab3ee6c56da63c21f17ea753dde4b3dfd41487103e24b27e94eac100b47751c020000232103fe754763c176e1339a3f62ee6b9484720e17ee4646b65a119e9f6370c7004abcac00000000000000002c6a2ae6464b4d444469636500a09ba104000000004014502e000000000903000000000000070000000000000000000000
```
Output:
```JSON
ebfcff20fa5ab7bebf14b778e74bd6b34b02f100ff75e4cb611190f160ae4cf7
```
### Step 3: Decode raw transaction (optional to check if the values are sane)
Example Command:
```shell
./komodo-cli -ac_name=ATEST decoderawtransaction 010000000a5890b79f42a2039d6b661cec3f0a748f8122b51427d2747d7cddb45e7c774988010000004847304402206544c1d0bb42da89d93e58526a28b3c80ef45dca516ecd11ee3fe7fc35a5261c02207f0b134ff5cdb840692a65eccd86fb2fc2a63afc6f1309a2ed9d054d1a076b1201ffffffff5b90bd88124ebd1a0988c612902234782b737b860189fb5871088d2d3aae2481020000004948304502210091972c641291022da6d49ab8d3790ccdbb0f563b385b89ac723fa688a6c84ee202207198c3d48ce1d9591fce6fb41192145c38f8312c7a78251f4231986070a3283a01ffffffff5bfb06fac51707a69414a1f908ac3f9eb3fca50f303c4ae960f94491e8dc7f5c0100000049483045022100ea0b49d902f844ef280b8621cdc5a5365a779a04a159ba30e00bd0b3eaf284da02205aece19ee807ce11b0ed7b74175df29dd2be4560361174664571a6a596a894fd01ffffffff5ca636731b8c28889248a0b434e3124f19518b2c4b4bbefd80af303329ae9471020000004847304402203eb318ae650753ab7cc2e9ea9b2cc2477add2fbd9e49e0ac1d7560f7e08ecbb002202d77d75ed2c1d3b53feda45c699374f74d1bf1065b46e3a24514dd072f2a9dcb01ffffffff5d5132ee6f33ba09b4bcfb84beddfcbdf58888ea7f221cc8078a96865e1e0ea10000000049483045022100e3cc5062becc979fc347a9ccde6af8ebba39c0d88105c9a35c89876207fafb0202204f631d063911e4526958f6629a847cca832d845a86adcae248625fd45b03e7d001ffffffff5e626ec0b20cd783ee0bf52aa33189796ddd4649d31b64fdee10b6daecbd079200000000494830450221009f3c17ccc73f28d9ba1d80c149890f56c6aafa576e152eb776082d12d54548eb022053f3b87eee04d9f5ef9f961d79433ec76b0f0e4a2288104212db01f6d2d7d1f801ffffffff5eb56cd4df0702b06debcf36de8309432b8140daa0a2544159ff68bbb96ed2050000000048473044022029bbf3fa5dea810d70ea9ef9b81b5ee72c3b3ec7d59faae4ca9658ed723ef683022060226d854ff44aebeba36bfda9e664185be0999ce7ee8b7b053f67642bd8c64101ffffffff603757f4b8370432cf30b12abdbb93b888e7707cd4321851f926779ee126e24402000000484730440220717994adac8b009a0f110438cef1e226d6674494e774813fad044b340c38052002202852c11fcc5bb1f3aa39e3dbbf00aa0d2b808c1c0769fbd692201cf10e96644b01ffffffff62347ddc97606a28457514a53b16d7fd9534c3c12d3f890cf72536f130737bae020000004847304402202dcf8a066fc56dae83f2259f902707aff7484251666c5b01a2e71e909fe859630220306a4149afce43dc343e103cdf4926ae9bf9f9a7a6eed9bf235efe04e619daea01ffffffff63686994d134931e0b43809f6d9ab73f7053d9aaa143987c56083345eddb5ec60100000048473044022066b3aadd3f2545c953f7389a062831736eda6c01f9df20e56b107d87fa6bfe8d02204357d85e1ab484c779fac5eab5d01fd39f5caf1ecde499873de34ac5e204b7ab01ffffffff0400112e08bd460000302ea22c80200095ece5eee67e1f313e7ba2d156c7617106cd52b75c93ed3fb110ff3fba6e998103120c008203000401cc10270000000000002321039d966927cfdadab3ee6c56da63c21f17ea753dde4b3dfd41487103e24b27e94eac100b47751c020000232103fe754763c176e1339a3f62ee6b9484720e17ee4646b65a119e9f6370c7004abcac00000000000000002c6a2ae6464b4d444469636500a09ba104000000004014502e000000000903000000000000070000000000000000000000
```
Output:
```JSON
{
  "txid": "ebfcff20fa5ab7bebf14b778e74bd6b34b02f100ff75e4cb611190f160ae4cf7",
  "size": 1342,
  "version": 1,
  "locktime": 0,
  "vin": [
    {
      "txid": "8849777c5eb4dd7c7d74d22714b522818f740a3fec1c666b9d03a2429fb79058",
      "vout": 1,
      "scriptSig": {
        "asm": "304402206544c1d0bb42da89d93e58526a28b3c80ef45dca516ecd11ee3fe7fc35a5261c02207f0b134ff5cdb840692a65eccd86fb2fc2a63afc6f1309a2ed9d054d1a076b1201",
        "hex": "47304402206544c1d0bb42da89d93e58526a28b3c80ef45dca516ecd11ee3fe7fc35a5261c02207f0b134ff5cdb840692a65eccd86fb2fc2a63afc6f1309a2ed9d054d1a076b1201"
      },
      "sequence": 4294967295
    },
    {
      "txid": "8124ae3a2d8d087158fb8901867b732b7834229012c688091abd4e1288bd905b",
      "vout": 2,
      "scriptSig": {
        "asm": "304502210091972c641291022da6d49ab8d3790ccdbb0f563b385b89ac723fa688a6c84ee202207198c3d48ce1d9591fce6fb41192145c38f8312c7a78251f4231986070a3283a01",
        "hex": "48304502210091972c641291022da6d49ab8d3790ccdbb0f563b385b89ac723fa688a6c84ee202207198c3d48ce1d9591fce6fb41192145c38f8312c7a78251f4231986070a3283a01"
      },
      "sequence": 4294967295
    },
    {
      "txid": "5c7fdce89144f960e94a3c300fa5fcb39e3fac08f9a11494a60717c5fa06fb5b",
      "vout": 1,
      "scriptSig": {
        "asm": "3045022100ea0b49d902f844ef280b8621cdc5a5365a779a04a159ba30e00bd0b3eaf284da02205aece19ee807ce11b0ed7b74175df29dd2be4560361174664571a6a596a894fd01",
        "hex": "483045022100ea0b49d902f844ef280b8621cdc5a5365a779a04a159ba30e00bd0b3eaf284da02205aece19ee807ce11b0ed7b74175df29dd2be4560361174664571a6a596a894fd01"
      },
      "sequence": 4294967295
    },
    {
      "txid": "7194ae293330af80fdbe4b4b2c8b51194f12e334b4a0489288288c1b7336a65c",
      "vout": 2,
      "scriptSig": {
        "asm": "304402203eb318ae650753ab7cc2e9ea9b2cc2477add2fbd9e49e0ac1d7560f7e08ecbb002202d77d75ed2c1d3b53feda45c699374f74d1bf1065b46e3a24514dd072f2a9dcb01",
        "hex": "47304402203eb318ae650753ab7cc2e9ea9b2cc2477add2fbd9e49e0ac1d7560f7e08ecbb002202d77d75ed2c1d3b53feda45c699374f74d1bf1065b46e3a24514dd072f2a9dcb01"
      },
      "sequence": 4294967295
    },
    {
      "txid": "a10e1e5e86968a07c81c227fea8888f5bdfcddbe84fbbcb409ba336fee32515d",
      "vout": 0,
      "scriptSig": {
        "asm": "3045022100e3cc5062becc979fc347a9ccde6af8ebba39c0d88105c9a35c89876207fafb0202204f631d063911e4526958f6629a847cca832d845a86adcae248625fd45b03e7d001",
        "hex": "483045022100e3cc5062becc979fc347a9ccde6af8ebba39c0d88105c9a35c89876207fafb0202204f631d063911e4526958f6629a847cca832d845a86adcae248625fd45b03e7d001"
      },
      "sequence": 4294967295
    },
    {
      "txid": "9207bdecdab610eefd641bd34946dd6d798931a32af50bee83d70cb2c06e625e",
      "vout": 0,
      "scriptSig": {
        "asm": "30450221009f3c17ccc73f28d9ba1d80c149890f56c6aafa576e152eb776082d12d54548eb022053f3b87eee04d9f5ef9f961d79433ec76b0f0e4a2288104212db01f6d2d7d1f801",
        "hex": "4830450221009f3c17ccc73f28d9ba1d80c149890f56c6aafa576e152eb776082d12d54548eb022053f3b87eee04d9f5ef9f961d79433ec76b0f0e4a2288104212db01f6d2d7d1f801"
      },
      "sequence": 4294967295
    },
    {
      "txid": "05d26eb9bb68ff594154a2a0da40812b430983de36cfeb6db00207dfd46cb55e",
      "vout": 0,
      "scriptSig": {
        "asm": "3044022029bbf3fa5dea810d70ea9ef9b81b5ee72c3b3ec7d59faae4ca9658ed723ef683022060226d854ff44aebeba36bfda9e664185be0999ce7ee8b7b053f67642bd8c64101",
        "hex": "473044022029bbf3fa5dea810d70ea9ef9b81b5ee72c3b3ec7d59faae4ca9658ed723ef683022060226d854ff44aebeba36bfda9e664185be0999ce7ee8b7b053f67642bd8c64101"
      },
      "sequence": 4294967295
    },
    {
      "txid": "44e226e19e7726f9511832d47c70e788b893bbbd2ab130cf320437b8f4573760",
      "vout": 2,
      "scriptSig": {
        "asm": "30440220717994adac8b009a0f110438cef1e226d6674494e774813fad044b340c38052002202852c11fcc5bb1f3aa39e3dbbf00aa0d2b808c1c0769fbd692201cf10e96644b01",
        "hex": "4730440220717994adac8b009a0f110438cef1e226d6674494e774813fad044b340c38052002202852c11fcc5bb1f3aa39e3dbbf00aa0d2b808c1c0769fbd692201cf10e96644b01"
      },
      "sequence": 4294967295
    },
    {
      "txid": "ae7b7330f13625f70c893f2dc1c33495fdd7163ba5147545286a6097dc7d3462",
      "vout": 2,
      "scriptSig": {
        "asm": "304402202dcf8a066fc56dae83f2259f902707aff7484251666c5b01a2e71e909fe859630220306a4149afce43dc343e103cdf4926ae9bf9f9a7a6eed9bf235efe04e619daea01",
        "hex": "47304402202dcf8a066fc56dae83f2259f902707aff7484251666c5b01a2e71e909fe859630220306a4149afce43dc343e103cdf4926ae9bf9f9a7a6eed9bf235efe04e619daea01"
      },
      "sequence": 4294967295
    },
    {
      "txid": "c65edbed453308567c9843a1aad953703fb79a6d9f80430b1e9334d194696863",
      "vout": 1,
      "scriptSig": {
        "asm": "3044022066b3aadd3f2545c953f7389a062831736eda6c01f9df20e56b107d87fa6bfe8d02204357d85e1ab484c779fac5eab5d01fd39f5caf1ecde499873de34ac5e204b7ab01",
        "hex": "473044022066b3aadd3f2545c953f7389a062831736eda6c01f9df20e56b107d87fa6bfe8d02204357d85e1ab484c779fac5eab5d01fd39f5caf1ecde499873de34ac5e204b7ab01"
      },
      "sequence": 4294967295
    }
  ],
  "vout": [
    {
      "value": 777777.00000000,
      "valueSat": 77777700000000,
      "n": 0,
      "scriptPubKey": {
        "asm": "a22c80200095ece5eee67e1f313e7ba2d156c7617106cd52b75c93ed3fb110ff3fba6e998103120c008203000401 OP_CHECKCRYPTOCONDITION",
        "hex": "2ea22c80200095ece5eee67e1f313e7ba2d156c7617106cd52b75c93ed3fb110ff3fba6e998103120c008203000401cc",
        "reqSigs": 1,
        "type": "cryptocondition",
        "addresses": [
          "REabWB7KjFN5C3LFMZ5odExHPenYzHLtVw"
        ]
      }
    },
    {
      "value": 0.00010000,
      "valueSat": 10000,
      "n": 1,
      "scriptPubKey": {
        "asm": "039d966927cfdadab3ee6c56da63c21f17ea753dde4b3dfd41487103e24b27e94e OP_CHECKSIG",
        "hex": "21039d966927cfdadab3ee6c56da63c21f17ea753dde4b3dfd41487103e24b27e94eac",
        "reqSigs": 1,
        "type": "pubkey",
        "addresses": [
          "RLEe8f7Eg3TDuXii9BmNiiiaVGraHUt25c"
        ]
      }
    },
    {
      "value": 23212.49930000,
      "valueSat": 2321249930000,
      "n": 2,
      "scriptPubKey": {
        "asm": "03fe754763c176e1339a3f62ee6b9484720e17ee4646b65a119e9f6370c7004abc OP_CHECKSIG",
        "hex": "2103fe754763c176e1339a3f62ee6b9484720e17ee4646b65a119e9f6370c7004abcac",
        "reqSigs": 1,
        "type": "pubkey",
        "addresses": [
          "RANyPgfZZLhSjQB9jrzztSw66zMMYDZuxQ"
        ]
      }
    },
    {
      "value": 0.00000000,
      "valueSat": 0,
      "n": 3,
      "scriptPubKey": {
        "asm": "OP_RETURN e6464b4d444469636500a09ba104000000004014502e0000000009030000000000000700000000000000",
        "hex": "6a2ae6464b4d444469636500a09ba104000000004014502e0000000009030000000000000700000000000000",
        "type": "nulldata"
      }
    }
  ]
}
```
