## Add Dice Funds

Usage: `diceaddfunds name fundingtxid amount`
Only the creator of the dicefund is able to add funds

### Terminology 
```
name = Name of your Dice contract
fundingtxid = The address of the Dice smart-contract you want to add funds
amount = The amount of funds you want to add to your dice from your wallet
```

### Step 1: Create a raw transaction hex value for adding funds
Example Command:
```shell
./komodo-cli -ac_name=ATEST diceaddfunds KMDDice ebfcff20fa5ab7bebf14b778e74bd6b34b02f100ff75e4cb611190f160ae4cf7 10
```
Output:
```JSON
{
  "result": "success",
  "hex": "0100000001646b59153d05ed0cb2b241dbbc42cd86df446ea43db8a66c68fdc2462e1bc6850000000049483045022100bdbf75970d7f708c4a5637d703b0a055e65a2eab0e71f6435604281d5981143d022008942029da09aa09bd0c9358b8169528e596968150e85d15c143c6961bf2b39501ffffffff0400ca9a3b00000000302ea22c80200095ece5eee67e1f313e7ba2d156c7617106cd52b75c93ed3fb110ff3fba6e998103120c008203000401cc1027000000000000232103fe754763c176e1339a3f62ee6b9484720e17ee4646b65a119e9f6370c7004abcacf0aed71218090000232103fe754763c176e1339a3f62ee6b9484720e17ee4646b65a119e9f6370c7004abcac00000000000000006d6a4c6ae6454b4d444469636500f74cae60f1901161cbe475ff00f1024bb3d64be778b714bfbeb75afa20fffcebd22d4e75f4939198938b49036f71c3a0e00d20ca05237147aaed0d85cd50ff29000000000000000000000000000000000000000000000000000000000000000000000000"
}
```
### Step 2: Send raw transaction / Broadcast the hex value
Example Command:
```shell
./komodo-cli -ac_name=ATEST sendrawtransaction 0100000001646b59153d05ed0cb2b241dbbc42cd86df446ea43db8a66c68fdc2462e1bc6850000000049483045022100bdbf75970d7f708c4a5637d703b0a055e65a2eab0e71f6435604281d5981143d022008942029da09aa09bd0c9358b8169528e596968150e85d15c143c6961bf2b39501ffffffff0400ca9a3b00000000302ea22c80200095ece5eee67e1f313e7ba2d156c7617106cd52b75c93ed3fb110ff3fba6e998103120c008203000401cc1027000000000000232103fe754763c176e1339a3f62ee6b9484720e17ee4646b65a119e9f6370c7004abcacf0aed71218090000232103fe754763c176e1339a3f62ee6b9484720e17ee4646b65a119e9f6370c7004abcac00000000000000006d6a4c6ae6454b4d444469636500f74cae60f1901161cbe475ff00f1024bb3d64be778b714bfbeb75afa20fffcebd22d4e75f4939198938b49036f71c3a0e00d20ca05237147aaed0d85cd50ff29000000000000000000000000000000000000000000000000000000000000000000000000
```
Output:
```JSON
83370785623efc679de990b0d90bd45b375a0a53ce9e011259c31a8c747fd1ff
```
### Step 3: Decode raw transaction (optional to check if the values are sane)
Example Command:
```shell
./komodo-cli -ac_name=ATEST decoderawtransaction 0100000001646b59153d05ed0cb2b241dbbc42cd86df446ea43db8a66c68fdc2462e1bc6850000000049483045022100bdbf75970d7f708c4a5637d703b0a055e65a2eab0e71f6435604281d5981143d022008942029da09aa09bd0c9358b8169528e596968150e85d15c143c6961bf2b39501ffffffff0400ca9a3b00000000302ea22c80200095ece5eee67e1f313e7ba2d156c7617106cd52b75c93ed3fb110ff3fba6e998103120c008203000401cc1027000000000000232103fe754763c176e1339a3f62ee6b9484720e17ee4646b65a119e9f6370c7004abcacf0aed71218090000232103fe754763c176e1339a3f62ee6b9484720e17ee4646b65a119e9f6370c7004abcac00000000000000006d6a4c6ae6454b4d444469636500f74cae60f1901161cbe475ff00f1024bb3d64be778b714bfbeb75afa20fffcebd22d4e75f4939198938b49036f71c3a0e00d20ca05237147aaed0d85cd50ff29000000000000000000000000000000000000000000000000000000000000000000000000
```
Output:
```JSON
{
  "txid": "83370785623efc679de990b0d90bd45b375a0a53ce9e011259c31a8c747fd1ff",
  "size": 387,
  "version": 1,
  "locktime": 0,
  "vin": [
    {
      "txid": "85c61b2e46c2fd686ca6b83da46e44df86cd42bcdb41b2b20ced053d15596b64",
      "vout": 0,
      "scriptSig": {
        "asm": "3045022100bdbf75970d7f708c4a5637d703b0a055e65a2eab0e71f6435604281d5981143d022008942029da09aa09bd0c9358b8169528e596968150e85d15c143c6961bf2b39501",
        "hex": "483045022100bdbf75970d7f708c4a5637d703b0a055e65a2eab0e71f6435604281d5981143d022008942029da09aa09bd0c9358b8169528e596968150e85d15c143c6961bf2b39501"
      },
      "sequence": 4294967295
    }
  ],
  "vout": [
    {
      "value": 10.00000000,
      "valueSat": 1000000000,
      "n": 0,
      "scriptPubKey": {
        "asm": "a22c80200095ece5eee67e1f313e7ba2d156c7617106cd52b75c93ed3fb110ff3fba6e998103120c008203000401 OP_CHECKCRYPTOCONDITION",
        "hex": "2ea22c80200095ece5eee67e1f313e7ba2d156c7617106cd52b75c93ed3fb110ff3fba6e998103120c008203000401cc",
        "reqSigs": 1,
        "type": "cryptocondition",
        "addresses": [
          "REabWB7KjFN5C3LFMZ5odExHPenYzHLtVw"
        ]
      }
    },
    {
      "value": 0.00010000,
      "valueSat": 10000,
      "n": 1,
      "scriptPubKey": {
        "asm": "03fe754763c176e1339a3f62ee6b9484720e17ee4646b65a119e9f6370c7004abc OP_CHECKSIG",
        "hex": "2103fe754763c176e1339a3f62ee6b9484720e17ee4646b65a119e9f6370c7004abcac",
        "reqSigs": 1,
        "type": "pubkey",
        "addresses": [
          "RANyPgfZZLhSjQB9jrzztSw66zMMYDZuxQ"
        ]
      }
    },
    {
      "value": 99989.99990000,
      "valueSat": 9998999990000,
      "n": 2,
      "scriptPubKey": {
        "asm": "03fe754763c176e1339a3f62ee6b9484720e17ee4646b65a119e9f6370c7004abc OP_CHECKSIG",
        "hex": "2103fe754763c176e1339a3f62ee6b9484720e17ee4646b65a119e9f6370c7004abcac",
        "reqSigs": 1,
        "type": "pubkey",
        "addresses": [
          "RANyPgfZZLhSjQB9jrzztSw66zMMYDZuxQ"
        ]
      }
    },
    {
      "value": 0.00000000,
      "valueSat": 0,
      "n": 3,
      "scriptPubKey": {
        "asm": "OP_RETURN e6454b4d444469636500f74cae60f1901161cbe475ff00f1024bb3d64be778b714bfbeb75afa20fffcebd22d4e75f4939198938b49036f71c3a0e00d20ca05237147aaed0d85cd50ff290000000000000000000000000000000000000000000000000000000000000000",
        "hex": "6a4c6ae6454b4d444469636500f74cae60f1901161cbe475ff00f1024bb3d64be778b714bfbeb75afa20fffcebd22d4e75f4939198938b49036f71c3a0e00d20ca05237147aaed0d85cd50ff290000000000000000000000000000000000000000000000000000000000000000",
        "type": "nulldata"
      }
    }
  ]
}
```
